:100000000C9435000C945D000C945D000C945D0024
:100010000C945D000C945D000C945D000C945D00EC
:100020000C945D000C945D000C945D000C945D00DC
:100030000C945D000C945D000C945D000C945D00CC
:100040000C94C9010C945D000C9497010C947101FF
:100050000C945D000C945D000C945D000C945D00AC
:100060000C945D000C945D00CE0211241FBECFEFF6
:10007000D8E0DEBFCDBF11E0A0E0B1E0E0E1F6E006
:1000800002C005900D92A832B107D9F721E0A8E28D
:10009000B1E001C01D92A23DB207E1F710E0C5E357
:1000A000D0E004C02197FE010E94FB02C433D107B7
:1000B000C9F70E9413020C9406030C940000CF921F
:1000C000DF92EF92FF920F931F93CF93DF936C0118
:1000D0007A018B01C0E0D0E0CE15DF0581F0D801B8
:1000E0006D918D01D601ED91FC910190F081E02D93
:1000F000C6010995892B11F02196EECF7E01C7012B
:10010000DF91CF911F910F91FF90EF90DF90CF90F3
:100110000895089580E090E00895FC01538D448D8A
:10012000252F30E0842F90E0821B930B541710F0A2
:10013000CF96089501970895FC01918D828D9817AF
:1001400061F0828DDF01A80FB11D5D968C91928DBB
:100150009F5F9F73928F90E008958FEF9FEF0895B8
:10016000FC01918D828D981731F0828DE80FF11D81
:10017000858D90E008958FEF9FEF0895FC01918D9C
:10018000228D892F90E0805C9F4F821B91098F7395
:100190009927089581E391E00E94BE0021E0892B18
:1001A00009F420E0822F0895FC01848DDF01A80F5F
:1001B000B11DA35ABF4F2C91848D90E001968F738F
:1001C0009927848FA689B7892C93A089B1898C91AE
:1001D000837080648C93938D848D981306C00288FD
:1001E000F389E02D80818F7D80830895EF92FF92C7
:1001F0000F931F93CF93DF93EC0181E0888F9B8D4A
:100200008C8D981305C0E889F989808185FD26C009
:10021000F62E0B8D10E00F5F1F4F0F731127E02E8E
:100220008C8DE8120CC00FB607FCFACFE889F9896B
:10023000808185FFF5CFCE010E94D400F1CF8B8D58
:10024000FE01E80FF11DE35AFF4FF0829FB7F894CB
:100250000B8FEA89FB89808180620AC09FB7F8947E
:10026000EE89FF896083E889F989808183708064E1
:1002700080839FBF81E090E0DF91CF911F910F912C
:10028000FF90EF900895CF93DF93EC01888D882342
:10029000C9F0EA89FB89808185FD05C0A889B989F3
:1002A0008C9186FD0FC00FB607FCF5CF808185FFCE
:1002B000F2CFA889B9898C9185FFEDCFCE010E943C
:1002C000D400E7CFDF91CF91089580E090E0892BB3
:1002D00029F00E94CA0081110C94000008950E9428
:1002E00001031F920F920FB60F9211242F933F9389
:1002F0004F935F936F937F938F939F93AF93BF932E
:10030000EF93FF9381E391E00E94D400FF91EF917E
:10031000BF91AF919F918F917F916F915F914F911D
:100320003F912F910F900FBE0F901F9018951F9225
:100330000F920FB60F9211242F938F939F93EF93E9
:10034000FF93E0914101F09142018081E0914701EA
:10035000F091480182FD12C0908180914A018F5F27
:100360008F7320914B01821751F0E0914A01F0E028
:10037000EF5CFE4F958F80934A0101C08081FF9111
:10038000EF919F918F912F910F900FBE0F901F9023
:1003900018951F920F920FB60F9211242F933F932F
:1003A0008F939F93AF93BF9380912D0190912E01D6
:1003B000A0912F01B091300130912C0123E0230F47
:1003C0002D3720F40196A11DB11D05C026E8230F8D
:1003D0000296A11DB11D20932C0180932D019093B5
:1003E0002E01A0932F01B0933001809128019091AC
:1003F0002901A0912A01B0912B010196A11DB11DE7
:100400008093280190932901A0932A01B0932B0196
:10041000BF91AF919F918F913F912F910F900FBE00
:100420000F901F901895789484B5826084BD84B530
:10043000816084BD85B5826085BD85B5816085BDDF
:1004400080916E00816080936E0010928100809197
:10045000810082608093810080918100816080931F
:100460008100809180008160809380008091B10044
:1004700084608093B1008091B00081608093B0006F
:1004800080917A00846080937A0080917A00826003
:1004900080937A0080917A00816080937A008091C5
:1004A0007A00806880937A001092C100E091410147
:1004B000F091420182E08083E0913D01F0913E01A4
:1004C00081E08083E0913F01F091400180EA8083E8
:1004D00010924901E0914501F091460186E0808348
:1004E000E0914301F0914401808180618083E0913B
:1004F0004301F0914401808188608083E091430151
:10050000F0914401808180688083E0914301F09103
:10051000440180818F7D80832FB7F89480912D01D5
:1005200090912E01A0912F01B09130012FBF4091E9
:10053000CE015091CF016091D0017091D101841B07
:10054000950BA60BB70B853F9140A105B10518F19E
:100550002FB7F89480912D0190912E01A0912F0139
:10056000B09130012FBF8093CE019093CF01A09323
:10057000D001B093D10141E150E062E171E081E34B
:1005800091E00E945F0042E050E064E271E081E3AC
:1005900091E00E945F000E946501BECFE1E3F1E0BF
:1005A0001382128288EE93E0A0E0B0E0848395830A
:1005B000A683B78384E091E09183808385EC90E00B
:1005C0009587848784EC90E09787868780EC90E01D
:1005D000918B808B81EC90E0938B828B82EC90E00E
:1005E000958B848B86EC90E0978B868B118E128E88
:1005F000138E148E0895EE0FFF1F0590F491E02DD9
:10060000099481E090E0F8940C940603F894FFCFED
:1006100000000000F6005F008D004301BE009C005A
:10062000B00024484348444D2C3039392E392C4DE4
:080630002A3234000D0A00001B
:00000001FF
