:100000000C945C000C9479000C9479000C947900A9
:100010000C9479000C9479000C9479000C9479007C
:100020000C9479000C9479000C9479000C9479006C
:100030000C9479000C9479000C9479000C9479005C
:100040000C948F010C9479000C9479000C94790035
:100050000C9479000C9479000C9479000C9479003C
:100060000C9479000C947900000000080002010053
:100070000003040700000000000000000000000072
:10008000250028002B0000000000240027002A0083
:10009000040404040404040402020202020203032E
:1000A0000303030301020408102040800102040836
:1000B000102001020408102011241FBECFEFD8E049
:1000C000DEBFCDBF11E0A0E0B1E0E8E0F6E002C0A5
:1000D00005900D92A032B107D9F721E0A0E2B1E07E
:1000E00001C01D92A033B207E1F70E94D9010C9420
:1000F00002030C94000090E0FC01EC55FF4F2491AA
:10010000FC01E057FF4F8491882399F090E0880F1D
:10011000991FFC01EA57FF4FA591B491FC01E458E7
:10012000FF4F859194918FB7F894EC91E22BEC936B
:100130008FBF089590E0FC01E859FF4F3491FC0116
:10014000EC55FF4F2491FC01E057FF4FE491EE2363
:1001500009F43BC0332339F1333091F038F43130B6
:10016000A9F0323001F584B58F7D12C0373091F09F
:100170003830A1F03430B9F4809180008F7D03C015
:10018000809180008F77809380000DC084B58F7739
:1001900084BD09C08091B0008F7703C08091B0000A
:1001A0008F7D8093B000F0E0EE0FFF1FE458FF4F0B
:1001B000A591B4918FB7F894EC91611103C020958B
:1001C0002E2301C02E2B2C938FBF08953FB7F89498
:1001D0008091250190912601A0912701B0912801DD
:1001E00026B5A89B05C02F3F19F00196A11DB11D92
:1001F0003FBFBA2FA92F982F8827820F911DA11DCD
:10020000B11DBC01CD0142E0660F771F881F991F09
:100210004A95D1F708958F929F92AF92BF92CF9255
:10022000DF92EF92FF926B017C010E94E6004B018E
:100230005C01C114D104E104F104F1F00E94E60074
:10024000DC01CB0188199909AA09BB09883E9340B2
:10025000A105B10570F321E0C21AD108E108F10847
:1002600088EE880E83E0981EA11CB11CC114D10435
:10027000E104F10419F7DDCFFF90EF90DF90CF900C
:10028000BF90AF909F908F9008950F931F93CF933F
:10029000DF93C7E0D0E0082F10E0B8010C2E02C0B9
:1002A000759567950A94E2F7617077278DE00E9453
:1002B0009A0061E088E00E949A0060E088E00E9475
:1002C0009A00219750F7DF91CF911F910F910895D8
:1002D0000F931F93CF93DF93162FD42FC22F81112B
:1002E00002C061E001C060E082E00E949A0060E02C
:1002F00085E00E949A00812F0E9445018D2F0E9467
:1003000045018C2F0E944501802F0E94450161E02C
:1003100085E0DF91CF911F910F910C949A001F926D
:100320000F920FB60F9211242F933F938F939F93A9
:10033000AF93BF938091210190912201A09123015D
:10034000B09124013091200123E0230F2D3720F4B8
:100350000196A11DB11D05C026E8230F0296A11D1F
:10036000B11D209320018093210190932201A0933D
:100370002301B09324018091250190912601A09141
:100380002701B09128010196A11DB11D809325017F
:1003900090932601A0932701B0932801BF91AF91BC
:1003A0009F918F913F912F910F900FBE0F901F90B3
:1003B0001895789484B5826084BD84B5816084BDCD
:1003C00085B5826085BD85B5816085BD80916E00F3
:1003D000816080936E001092810080918100826024
:1003E0008093810080918100816080938100809161
:1003F00080008160809380008091B1008460809350
:10040000B1008091B00081608093B00080917A004B
:10041000846080937A0080917A00826080937A0071
:1004200080917A00816080937A0080917A00806860
:1004300080937A001092C10085E00E947B0088E0E2
:100440000E947B008DE00E947B0082E00E947B0086
:100450000FEF2FEF40E060E080E00E94680168EE5F
:1004600073E080E090E00E940B0100E820E84FEF8D
:100470006FEF81E00E94680168EE73E080E090E039
:100480000E940B010FEF2FEF40E060E080E00E9440
:10049000680168EE73E080E090E00E940B0100E8E4
:1004A00020E84FEF6FEF81E00E94680168EE73E093
:1004B00080E090E00E940B010FEF2FEF40E060E042
:1004C00080E00E94680168EE73E080E090E00E94A6
:1004D0000B01CC24CA9493E0D92EE12CF12CC0E07E
:1004E000D0E011E429E9B22E10937C0080917A00CB
:1004F000806480937A0080917A0086FDFCCF209101
:1005000078008091790030E0382B30932F012093D0
:100510002E0110922D01AFE0B0E00E94F302A7017E
:1005200096010E94B202220F331FF901E050FF4FE3
:100530004081618160932C0140932B01B0922A018C
:100540001092290109E920E080E00E94680164EF2F
:1005500071E080E090E00E940B01209729F20E9458
:100560000000C2CF052E97FB1EF400940E94C90222
:1005700057FD07D00E94D10207FC03D04EF40C9423
:10058000C90250954095309521953F4F4F4F5F4F91
:10059000089590958095709561957F4F8F4F9F4FEF
:1005A0000895A1E21A2EAA1BBB1BFD010DC0AA1FB4
:1005B000BB1FEE1FFF1FA217B307E407F50720F0CC
:1005C000A21BB30BE40BF50B661F771F881F991F47
:1005D0001A9469F760957095809590959B01AC0190
:1005E000BD01CF010895A29FB001B39FC001A39F99
:1005F000700D811D1124911DB29F700D811D11245C
:08060000911D0895F894FFCF4D
:100608000100030007000F001F003F007F00FF00EC
:10061800FF01FF03FF07FF0FFF1FFF3FFF7FFFFFE4
:00000001FF
