:100000000C945D000C9485000C9485000C94850084
:100010000C9485000C9485000C9485000C9485004C
:100020000C9485000C9485000C9485000C9485003C
:100030000C9485000C9485000C9485000C9485002C
:100040000C9421030C9485000C9491030C946B0385
:100050000C9485000C9485000C9485000C9485000C
:100060000C9485000C94850000000008000201003B
:100070000003040700000000000000000000000072
:10008000250028002B0000000000240027002A0083
:10009000040404040404040402020202020203032E
:1000A0000303030301020408102040800102040836
:1000B00010200102040810202C0511241FBECFEFD0
:1000C000D8E0DEBFCDBF11E0A0E0B1E0E6E0FFE0A8
:1000D00002C005900D92AA33B107D9F721E0AAE337
:1000E000B1E001C01D92A53EB207E1F710E0CDE5F9
:1000F000D0E004C02197FE010E947607CC35D107DD
:10010000C9F70E94C3030C9481070C94000090E08F
:10011000FC01EC55FF4F2491FC01E057FF4F849107
:10012000882399F090E0880F991FFC01EA57FF4F50
:10013000A591B491FC01E458FF4F859194918FB73C
:10014000F894EC91E22BEC938FBF089590E0FC01C2
:10015000E859FF4F2491FC01EC55FF4F3491FC010D
:10016000E057FF4FE491EE2309F43CC0222339F11C
:10017000233091F038F42130A9F0223001F584B514
:100180008F7D12C0273091F02830A1F02430B9F4CF
:10019000809180008F7D03C0809180008F77809355
:1001A00080000DC084B58F7784BD09C08091B000F8
:1001B0008F7703C08091B0008F7D8093B000F0E016
:1001C000EE0FFF1FE458FF4FA591B4919FB7F8942D
:1001D000611104C08C913095382302C0EC913E2B04
:1001E0003C939FBF08953FB7F8948091440190914C
:1001F0004501A0914601B091470126B5A89B05C0D5
:100200002F3F19F00196A11DB11D3FBFBA2FA92F95
:10021000982F8827820F911DA11DB11DBC01CD0112
:1002200042E0660F771F881F991F4A95D1F70895FE
:100230008F929F92AF92BF92CF92DF92EF92FF92F6
:100240006B017C010E94F3004B015C01C114D104DD
:10025000E104F104F1F00E94F300DC01CB01881904
:100260009909AA09BB09883E9340A105B10570F31D
:1002700021E0C21AD108E108F10888EE880E83E077
:10028000981EA11CB11CC114D104E104F10419F79A
:10029000DDCFFF90EF90DF90CF90BF90AF909F9019
:1002A0008F900895CF92DF92EF92FF920F931F935A
:1002B000CF93DF936C017A018B01C0E0D0E0CE15C3
:1002C000DF0581F0D8016D918D01D601ED91FC9192
:1002D0000190F081E02DC6010995892B11F021963E
:1002E000EECF7E01C701DF91CF911F910F91FF905B
:1002F000EF90DF90CF900895089580E090E008950A
:10030000FC01538D448D252F30E0842F90E0821B1B
:10031000930B541710F0CF96089501970895FC01A0
:10032000918D828D981761F0828DDF01A80FB11D2C
:100330005D968C91928D9F5F9F73928F90E0089550
:100340008FEF9FEF0895FC01918D828D981731F00A
:10035000828DE80FF11D858D90E008958FEF9FEF5E
:100360000895FC01918D228D892F90E0805C9F4F34
:10037000821B91098F739927089588E491E00E9468
:10038000B10121E0892B09F420E0822F0895FC01BE
:10039000848DDF01A80FB11DA35ABF4F2C91848D0E
:1003A00090E001968F739927848FA689B7892C9343
:1003B000A089B1898C91837080648C93938D848D96
:1003C000981306C00288F389E02D80818F7D808399
:1003D0000895EF92FF920F931F93CF93DF93EC0159
:1003E00081E0888F9B8D8C8D981305C0E889F989F1
:1003F000808185FD26C0F62E0B8D10E00F5F1F4F0C
:100400000F731127E02E8C8DE8120CC00FB607FC7D
:10041000FACFE889F989808185FFF5CFCE010E9466
:10042000C701F1CF8B8DFE01E80FF11DE35AFF4F9D
:10043000F0829FB7F8940B8FEA89FB8980818062F4
:100440000AC09FB7F894EE89FF896083E889F9892B
:1004500080818370806480839FBF81E090E0DF9122
:10046000CF911F910F91FF90EF900895CF93DF935D
:10047000EC01888D8823C9F0EA89FB89808185FD9C
:1004800005C0A889B9898C9186FD0FC00FB607FCFD
:10049000F5CF808185FFF2CFA889B9898C9185FF3E
:1004A000EDCFCE010E94C701E7CFDF91CF91089534
:1004B00080E090E0892B29F00E94BD0181110C940D
:1004C000000008950F931F93CF93DF93C7E0D0E010
:1004D000082F10E0B8010C2E02C0759567950A949C
:1004E000E2F761708DE00E94A60061E088E00E9462
:1004F000A60060E088E00E94A600219758F7DF91EF
:10050000CF911F910F9108950F931F93CF93DF9376
:10051000162FD42FC22F811102C061E001C060E00C
:1005200082E00E94A60060E085E00E94A600812F84
:100530000E9462028D2F0E9462028C2F0E94620232
:10054000802F0E94620261E085E0DF91CF911F91D0
:100550000F910C94A600009769F0FC010190002017
:10056000E9F73197AF01481B590BBC0188E491E0D2
:100570000C94520180E090E008958F929F92AF9288
:10058000BF920F931F93CF93DF93CDB7DEB7A197A1
:100590000FB6F894DEBF0FBECDBF19A2423008F4EB
:1005A0004AE08E010F5D1F4F842E912CA12CB12C9F
:1005B000A50194010E947805E62FB901CA010150F6
:1005C0001109EA3014F4E05D01C0E95CD801EC9354
:1005D000232B242B252B61F7C8010E94AB02A19687
:1005E0000FB6F894DEBF0FBECDBFDF91CF911F9144
:1005F0000F91BF90AF909F908F900895CF92DF9210
:10060000EF92FF92CF93DF936B017C016DE288E460
:1006100091E00E94E901EC0166277727CB016C1974
:100620007D098E099F094AE00E94BD028C0F9D1F23
:10063000DF91CF91FF90EF90DF90CF9008950E94CF
:100640007C071F920F920FB60F9211242F933F93A6
:100650008F939F93AF93BF938091400190914101FD
:10066000A0914201B091430130913F0123E0230F5B
:100670002D3720F40196A11DB11D05C026E8230FDA
:100680000296A11DB11D20933F01809340019093DC
:100690004101A0934201B0934301809144019091A4
:1006A0004501A0914601B09147010196A11DB11DE0
:1006B0008093440190934501A0934601B093470174
:1006C000BF91AF919F918F913F912F910F900FBE4E
:1006D0000F901F9018951F920F920FB60F92112432
:1006E0002F933F934F935F936F937F938F939F933A
:1006F000AF93BF93EF93FF9388E491E00E94C7010B
:10070000FF91EF91BF91AF919F918F917F916F91E9
:100710005F914F913F912F910F900FBE0F901F90BF
:1007200018951F920F920FB60F9211242F938F934B
:100730009F93EF93FF93E0915801F09159018081CD
:10074000E0915E01F0915F0182FD12C09081809185
:1007500061018F5F8F7320916201821751F0E091E8
:100760006101F0E0E85BFE4F958F8093610101C06D
:100770008081FF91EF919F918F912F910F900FBEEC
:100780000F901F901895789484B5826084BD84B5CD
:10079000816084BD85B5826085BD85B5816085BD7C
:1007A00080916E00816080936E0010928100809134
:1007B00081008260809381008091810081608093BC
:1007C0008100809180008160809380008091B100E1
:1007D00084608093B1008091B00081608093B0000C
:1007E00080917A00846080937A0080917A008260A0
:1007F00080937A0080917A00816080937A00809162
:100800007A00806880937A001092C10085E00E948F
:10081000870088E00E9487008DE00E94870082E0C8
:100820000E9487000FEF2FEF40E060E080E00E9421
:10083000840268EE73E080E090E00E94180100E816
:1008400020E84FEF6FEF81E00E94840268EE73E0D2
:1008500080E090E00E9418010FEF2FEF40E060E091
:1008600080E00E94840268EE73E080E090E00E94E5
:10087000180100E820E84FEF6FEF81E00E9484024A
:1008800068EE73E080E090E00E9418010FEF2FEF18
:1008900040E060E080E00E94840268EE73E080E067
:1008A00090E00E941801E0915801F091590182E016
:1008B0008083E0915401F091550181E08083E091C3
:1008C0005601F091570180EA808310926001E09117
:1008D0005C01F0915D0186E08083E0915A01F09126
:1008E0005B01808180618083E0915A01F0915B011E
:1008F000808188608083E0915A01F0915B01808162
:1009000080688083E0915A01F0915B0180818F7D46
:10091000808311E093E6492E512C612C712C2AE042
:10092000222E312C81E480937C0080917A008064B7
:1009300080937A0080917A0086FDFCCFC090780089
:1009400080917900D12CD82AD0923E01C0923D01ED
:10095000E12CF12CC701B6010E944C062DE930E8CC
:1009600046EA5DEB0E94DA062AE63DE847E152E4FA
:100970000E94AA0520E030E040E251E40E94DA063D
:100980000E94160677FF05C010933C01C0E0D0E03E
:1009900008C010923C01EB016436710514F0C3E607
:1009A000D0E02FE030E0DE010E945B07A30192015E
:1009B0000E94590549015A01F901EE0FFF1FEE5E31
:1009C000FE4F40813181CE01B1010E944707262FA1
:1009D00080933B0160933A01082F632F80913C0183
:1009E0000E9484024AE0C701B6010E94BD0282E370
:1009F00091E00E94AB02BE01DD0F880B990B4AE02B
:100A00000E94BD0282E391E00E94AB0260913A0134
:100A100070E080E090E04AE00E94BD0260913B01FE
:100A200070E080E090E04AE00E94BD0282E391E045
:100A30000E94AB024AE0C501B4010E94BD0286E3F8
:100A400091E00E94AB0264EF71E080E090E00E94D0
:100A500018010E94580266CFE8E4F1E01382128286
:100A600088EE93E0A0E0B0E084839583A683B7830B
:100A700084E091E09183808385EC90E09587848782
:100A800084EC90E09787868780EC90E0918B808B58
:100A900081EC90E0938B828B82EC90E0958B848B41
:100AA00086EC90E0978B868B118E128E138E148EAF
:100AB0000895052E97FB1EF400940E94700557FDC3
:100AC00007D00E94780507FC03D04EF40C94700503
:100AD00050954095309521953F4F4F4F5F4F08956A
:100AE00090958095709561957F4F8F4F9F4F08959A
:100AF000A1E21A2EAA1BBB1BFD010DC0AA1FBB1F22
:100B0000EE1FFF1FA217B307E407F50720F0A21B93
:100B1000B30BE40BF50B661F771F881F991F1A9400
:100B200069F760957095809590959B01AC01BD012A
:100B3000CF010895A29FB001B39FC001A39F700D84
:100B4000811D1124911DB29F700D811D1124911DD5
:100B500008955058BB27AA270E94C1050C94A006EF
:100B60000E94920638F00E94990620F039F49F3FC7
:100B700019F426F40C948F060EF4E095E7FB0C9420
:100B80008906E92F0E94B10658F3BA176207730766
:100B90008407950720F079F4A6F50C94D3060EF49B
:100BA000E0950B2EBA2FA02D0B01B90190010C017D
:100BB000CA01A0011124FF27591B99F0593F50F495
:100BC000503E68F11A16F040A22F232F342F4427ED
:100BD000585FF3CF469537952795A795F0405395E5
:100BE000C9F77EF41F16BA0B620B730B840BBAF0B5
:100BF0009150A1F0FF0FBB1F661F771F881FC2F720
:100C00000EC0BA0F621F731F841F48F48795779533
:100C10006795B795F7959E3F08F0B0CF9395880FED
:100C200008F09927EE0F9795879508950E941D0665
:100C30006894B1110C94D40608950E94B90688F006
:100C40009F5798F0B92F9927B751B0F0E1F0660F90
:100C5000771F881F991F1AF0BA95C9F714C0B130D1
:100C600091F00E94D306B1E008950C94D306672F4B
:100C7000782F8827B85F39F0B93FCCF38695779500
:100C80006795B395D9F73EF49095809570956195E9
:100C90007F4F8F4F9F4F0895E89409C097FB3EF414
:100CA00090958095709561957F4F8F4F9F4F9923B9
:100CB000A9F0F92F96E9BB279395F6958795779537
:100CC0006795B795F111F8CFFAF4BB0F11F460FFF7
:100CD0001BC06F5F7F4F8F4F9F4F16C0882311F04F
:100CE00096E911C0772321F09EE8872F762F05C063
:100CF000662371F096E8862F70E060E02AF09A95FE
:100D0000660F771F881FDAF7880F9695879597F9F2
:100D1000089597F99F6780E870E060E008959FEF7D
:100D200080EC089500240A94161617061806090682
:100D3000089500240A941216130614060506089551
:100D4000092E0394000C11F4882352F0BB0F40F4D9
:100D5000BF2B11F460FF04C06F5F7F4F8F4F9F4F19
:100D6000089557FD9058440F551F59F05F3F71F09B
:100D70004795880F97FB991F61F09F3F79F0879502
:100D80000895121613061406551FF2CF4695F1DF8B
:100D900008C0161617061806991FF1CF869571051B
:100DA000610508940895E894BB2766277727CB014F
:100DB00097F908950E94ED060C94A0060E949206F1
:100DC00038F00E94990620F0952311F00C948906C2
:100DD0000C948F0611240C94D4060E94B10670F373
:100DE000959FC1F3950F50E0551F629FF001729FD0
:100DF000BB27F00DB11D639FAA27F00DB11DAA1FDF
:100E0000649F6627B00DA11D661F829F2227B00D2B
:100E1000A11D621F739FB00DA11D621F839FA00DB6
:100E2000611D221F749F3327A00D611D231F849F06
:100E3000600D211D822F762F6A2F11249F5750405D
:100E40009AF0F1F088234AF0EE0FFF1FBB1F661FD8
:100E5000771F881F91505040A9F79E3F510580F0A1
:100E60000C9489060C94D4065F3FE4F3983ED4F3C7
:100E7000869577956795B795F795E7959F5FC1F745
:100E8000FE2B880F911D9695879597F9089597FBEE
:100E9000072E16F4009407D077FD09D00E94620750
:100EA00007FC05D03EF4909581959F4F089570956D
:100EB00061957F4F08950E949A05B7FF0895821BA0
:100EC000930B0895AA1BBB1B51E107C0AA1FBB1FB0
:100ED000A617B70710F0A61BB70B881F991F5A95C6
:100EE000A9F780959095BC01CD010895EE0FFF1FE5
:100EF0000590F491E02D099481E090E0F8940C9431
:060F00008107F894FFCF09
:100F060000000000E901520180013602B1018F01A3
:100F1600A3010100030007000F001F003F007F0030
:100F2600FF00FF01FF03FF07FF0FFF1FFF3FFF7FCC
:0A0F3600FFFF202020000D0A00003C
:107800000C94343C0C94513C0C94513C0C94513CE1
:107810000C94513C0C94513C0C94513C0C94513CB4
:107820000C94513C0C94513C0C94513C0C94513CA4
:107830000C94513C0C94513C0C94513C0C94513C94
:107840000C94513C0C94513C0C94513C0C94513C84
:107850000C94513C0C94513C0C94513C0C94513C74
:107860000C94513C0C94513C11241FBECFEFD8E036
:10787000DEBFCDBF11E0A0E0B1E0ECE9FFE702C060
:1078800005900D92A230B107D9F712E0A2E0B1E065
:1078900001C01D92AD30B107E1F70E942D3D0C945F
:1078A000CC3F0C94003C982F959595959595959582
:1078B000905D8F708A307CF0282F295A8091C0000B
:1078C00085FFFCCF9093C6008091C00085FFFCCF60
:1078D0002093C6000895282F205DF0CF982F809127
:1078E000C00085FFFCCF9093C6000895EF92FF92F1
:1078F0000F931F93EE24FF2487018091C00087FD22
:1079000017C00894E11CF11C011D111D81E4E8164B
:1079100082E4F8068FE0080780E0180770F3E09132
:107920000401F091050109958091C00087FFE9CF1E
:107930008091C6001F910F91FF90EF9008950E94D3
:10794000763C982F8091C00085FFFCCF9093C600B5
:1079500091362CF490330CF09053892F089597555D
:10796000892F08951F930E949F3C182F0E949F3CCF
:107970001295107F810F1F9108951F93182F882350
:1079800021F00E94763C1150E1F71F9108951F935A
:10799000182F0E94763C803249F0809103018F5F5E
:1079A000809303018530C1F01F9108958091C0003C
:1079B00085FFFCCF84E18093C6008091C00085FFE5
:1079C000FCCF1093C6008091C00085FFFCCF80E102
:1079D0008093C6001F910895E0910401F091050184
:1079E00009951F9108950E94763C803241F0809164
:1079F00003018F5F80930301853081F008958091AA
:107A0000C00085FFFCCF84E18093C6008091C00058
:107A100085FFFCCF80E18093C6000895E0910401CA
:107A2000F09105010995089540E951E08823A1F0FE
:107A30002D9A28EE33E0FA013197F1F721503040CA
:107A4000D1F72D9828EE33E0FA013197F1F7215064
:107A50003040D1F7815061F708953F924F925F9285
:107A60006F927F928F929F92AF92BF92CF92DF924E
:107A7000EF92FF920F931F93CF93DF93000080E16B
:107A80008093C4001092C50088E18093C10086E015
:107A90008093C2005098589A259A81E00E94143D24
:107AA00024E1F22E9EE1E92E85E9D82E0FE0C02ECA
:107AB00010E1B12EAA24A394B1E49B2EA6E58A2E50
:107AC000F2E57F2EE0E26E2E79E4572E63E5462E36
:107AD00050E5352E0E94763C8033B1F18133B9F107
:107AE000803409F46FC0813409F476C0823409F41B
:107AF00085C0853409F488C0803531F1823521F1A3
:107B0000813511F1853509F485C0863509F48DC0BC
:107B1000843609F496C0843709F403C1853709F423
:107B200072C1863709F466C0809103018F5F80932C
:107B30000301853079F6E0910401F0910501099582
:107B40000E94763C803351F60E94F33CC3CF0E94E2
:107B5000763C803249F78091C00085FFFCCFF092DF
:107B6000C6008091C00085FFFCCF9092C600809136
:107B7000C00085FFFCCF8092C6008091C00085FFC9
:107B8000FCCF7092C6008091C00085FFFCCF609250
:107B9000C6008091C00085FFFCCF5092C600809146
:107BA000C00085FFFCCF4092C6008091C00085FFD9
:107BB000FCCF3092C6008091C00085FFFCCFB09210
:107BC000C60088CF0E94763C863808F4BDCF0E945C
:107BD000763C0E94F33C7ECF0E94763C803809F4CC
:107BE0009CC0813809F40BC1823809F43CC1883942
:107BF00009F48FC080E00E94C73C6CCF84E10E94F2
:107C0000BD3C0E94F33C66CF85E00E94BD3C0E94D3
:107C1000F33C60CF0E94763C809306010E94763C44
:107C2000809307010E94F33C55CF0E94763C80333D
:107C300009F41DC183E00E94BD3C80E00E94C73C66
:107C400049CF0E94763C809309020E94763C809343
:107C5000080280910C028E7F80930C020E94763C79
:107C6000853409F415C18091080290910902892B8D
:107C700089F000E010E00E94763CF801E85FFE4FDA
:107C800080830F5F1F4F80910802909109020817AF
:107C9000190788F30E94763C803209F045CF809125
:107CA0000C0280FF01C16091060170910701660F0F
:107CB000771F7093070160930601A0910802B091AD
:107CC00009021097C9F0E8E0F1E09B01AD014E0F09
:107CD0005F1FF999FECF32BD21BD819180BDFA9A17
:107CE000F99A2F5F3F4FE417F50799F76A0F7B1F4B
:107CF00070930701609306018091C00085FFFCCF5F
:107D0000F092C6008091C00085FFFCCFB092C60003
:107D1000E1CE83E00E94C73CDDCE82E00E94C73CFA
:107D2000D9CE0E94763C809309020E94763C8093D3
:107D300008028091060190910701880F991F909386
:107D40000701809306010E94763C853409F4A6C0A1
:107D500080910C028E7F80930C020E94763C8032D0
:107D600009F0B8CE8091C00085FFFCCFF092C6002C
:107D7000609108027091090261157105B9F140E046
:107D800050E080910C02A82FA170B82FB27011C0E2
:107D9000BB2309F45CC0E0910601F0910701319624
:107DA000F0930701E09306014F5F5F4F46175707B7
:107DB000E8F4AA2369F3F999FECF209106013091E6
:107DC000070132BD21BDF89A90B58091C00085FFB2
:107DD000FCCF9093C6002F5F3F4F30930701209355
:107DE00006014F5F5F4F4617570718F38091C00099
:107DF00085FDE5CE8091C00085FFF8CFE0CE81E023
:107E00000E94C73C67CE0E94763C803209F08CCE3F
:107E10008091C00085FFFCCFF092C6008091C00029
:107E200085FFFCCFE092C6008091C00085FFFCCFAB
:107E3000D092C6008091C00085FFFCCFC092C600E2
:107E40008091C00085FFFCCFB092C60043CEE09188
:107E50000601F091070194918091C00085FFFCCF4D
:107E60009093C6009CCF80E10E94C73C33CE0E9415
:107E7000763C0E94763C182F0E94763C112309F430
:107E800083C0113009F484C08FE00E94C73C22CE29
:107E900080910C02816080930C02E5CE80910C02EF
:107EA000816080930C0259CF809107018823880F4D
:107EB000880B8A2180930B02809106019091070123
:107EC000880F991F90930701809306018091080203
:107ED00080FF09C080910802909109020196909359
:107EE000090280930802F894F999FECF1127E091D6
:107EF0000601F0910701C8E0D1E08091080290915D
:107F00000902103091F40091570001700130D9F34B
:107F100003E000935700E89500915700017001308D
:107F2000D9F301E100935700E89509901990009169
:107F3000570001700130D9F301E000935700E89534
:107F40001395103498F011270091570001700130FB
:107F5000D9F305E000935700E895009157000170B0
:107F60000130D9F301E100935700E895329602976A
:107F700009F0C7CF103011F00296E5CF112480919F
:107F8000C00085FFB9CEBCCE8EE10E94C73CA2CD19
:0C7F900085E90E94C73C9ECDF894FFCF0D
:027F9C00800063
:040000030000780081
:00000001FF
