:100000000C9455000C947D000C947D000C947D00A4
:100010000C947D000C947D000C947D000C947D006C
:100020000C947D000C947D000C947D000C947D005C
:100030000C947D000C947D000C947D000C947D004C
:100040000C9472010C947D000C9448030C947A0378
:100050000C947D000C947D000C947D000C947D002C
:100060000C947D000C947D004E414E494E495459EC
:10007000494E46CDCCCC3D0AD7233C17B7D1387773
:10008000CC2B329595E6241FB14F0A000020410089
:1000900000C84200401C4620BCBE4CCA1B0E5AAED3
:1000A000C59D74004D01AA03530111241FBECFEF5B
:1000B000D8E0DEBFCDBF11E0A0E0B1E0E2EDF6E1B7
:1000C00002C005900D92A235B107D9F722E0A2E552
:1000D000B1E001C01D92A335B207E1F710E0C8EA14
:1000E000D0E004C02297FE010E942407C43AD10741
:1000F000C9F70E94EE030C945C0B0C94000026E000
:1001000040EC52E160E070E080EB91E00C94E6029C
:10011000FC01319680E09191292F2F7D2A3021F02A
:10012000992311F08927F7CF08950F931F93CF9349
:10013000DF93CDB7DEB7C355D1090FB6F894DEBF54
:100140000FBECDBF8091A001811182C027E030E0B9
:1001500040E050E061EA71E0CE0101960E94A20504
:1001600068E071E0CE0101960E945905182FCE017A
:1001700001960E945104112309F46AC066E071E0FF
:1001800082E591E00E9442094091A5015091A601AB
:1001900020E030E0BE016F5F7F4F81EA91E00E9476
:1001A0007805DE011896FE01E35BFF4F9E01235F99
:1001B0003F4F8F018D918193A217B307D9F7C801E3
:1001C0000E94190960939C0170939D0180939E0188
:1001D00090939F0160E171E082E591E00E942E0919
:1001E000B80182E591E00E942E0968E171E082E5A4
:1001F00091E00E942E0982E591E00E94880040E192
:10020000682FCE01895B9F4F0E94ED042D964EAD65
:100210005FAD2D974F5F5F4F20E030E0BE016E5A1B
:100220007F4FCE01895B9F4F0E947805BE016E5AB9
:100230007F4F82E591E00E942E0966E071E0CE01D9
:1002400001960E944209CE01895B9F4F0E94510492
:100250000E94BC01653671058105910580F00E9400
:10026000BC01609398017093990180939A019093D7
:100270009B0162E571E080EB91E00E943F041092E7
:10028000A001CD5ADF4F0FB6F894DEBF0FBECDBF31
:10029000DF91CF911F910F9108956EE171E081EA96
:1002A00091E00C94BF0481EA91E00C945104CF9347
:1002B000DF93D1E080EB91E00E940302892B79F07B
:1002C00080EB91E00E941C02C82F682F81EA91E028
:1002D0000E944605CA3071F7D093A001EBCFDF91A1
:1002E000CF9108951F920F920FB60F9211242F9362
:1002F0003F938F939F93AF93BF938091A801909169
:10030000A901A091AA01B091AB013091A70123E00E
:10031000230F2D3720F40196A11DB11D05C026E83D
:10032000230F0296A11DB11D2093A7018093A80160
:100330009093A901A093AA01B093AB018091AC0165
:100340009091AD01A091AE01B091AF010196A11DB8
:10035000B11D8093AC019093AD01A093AE01B09319
:10036000AF01BF91AF919F918F913F912F910F90CE
:100370000FBE0F901F9018952FB7F8946091A801A9
:100380007091A9018091AA019091AB012FBF0895AE
:10039000789484B5826084BD84B5816084BD85B560
:1003A000826085BD85B5816085BDEEE6F0E0808127
:1003B00081608083E1E8F0E0108280818260808348
:1003C000808181608083E0E8F0E0808181608083CB
:1003D000E1EBF0E0808184608083E0EBF0E08081FD
:1003E00081608083EAE7F0E080818460808380819F
:1003F0008260808380818160808380818068808347
:100400001092C1000895FC01818D228D90E0805CE6
:100410009F4F821B91098F7399270895FC01918D3D
:10042000828D981731F0828DE80FF11D858D90E057
:1004300008958FEF9FEF0895FC01918D828D98179D
:1004400061F0828DDF01A80FB11D5D968C91928DB8
:100450009F5F9F73928F90E008958FEF9FEF0895B5
:1004600080EA93E0892B49F087E591E0892B29F018
:100470000E94A00381110C9457010895FC01848D02
:10048000DF01A80FB11DA35ABF4F2C91848D90E0BE
:1004900001968F739927848FA689B7892C93A08999
:1004A000B1898C9180648C93938D848D981306C050
:1004B0000288F389E02D80818F7D80830895CF931A
:1004C000DF93EC01888D8823C9F0EA89FB8980815C
:1004D00085FD05C0A889B9898C9186FD0FC00FB62E
:1004E00007FCF5CF808185FFF2CFA889B9898C916F
:1004F00085FFEDCFCE010E943E02E7CFDF91CF9185
:100500000895CF92DF92FF920F931F93CF93DF93C3
:100510001F92CDB7DEB76C0181E0D60158968C935F
:1005200058975B969C915B975C968C915C9798131F
:1005300007C05096ED91FC915197808185FD2EC0AA
:10054000F601038D10E00F5F1F4F0F731127F02E80
:10055000F601848DF81211C00FB607FCF9CFD60151
:100560005096ED91FC915197808185FFF1CFC601A6
:1005700069830E943E026981EBCF838DE80FF11DF4
:10058000E35AFF4F6083D6015B960C935B975296BC
:10059000ED91FC915397808180620CC0D6015696F4
:1005A000ED91FC91579760835096ED91FC91519796
:1005B00080818064808381E090E00F90DF91CF9113
:1005C0001F910F91FF90DF90CF900895BF92CF922F
:1005D000DF92EF92FF92CF93DF93EC016A017B01F0
:1005E000B22EE889F98982E08083411581EE5807AF
:1005F00061057105A1F060E079E08DE390E0A7016D
:1006000096010E9400072150310941095109569570
:10061000479537952795211580E1380798F0E889A7
:10062000F989108260E874E88EE190E0A7019601F4
:100630000E940007215031094109510956954795FB
:1006400037952795EC85FD853083EE85FF852083E2
:10065000188EEC89FD89B082EA89FB8980818061EE
:100660008083EA89FB89808188608083EA89FB89AD
:10067000808180688083EA89FB8980818F7D808387
:10068000DF91CF91FF90EF90DF90CF90BF900895D2
:100690001F920F920FB60F9211242F938F939F9357
:1006A000EF93FF93E091C001F091C1018081E0914F
:1006B000C601F091C70182FD12C090818091C901ED
:1006C0008F5F8F732091CA01821751F0E091C901A9
:1006D000F0E0E055FE4F958F8093C90101C0808105
:1006E000FF91EF919F918F912F910F900FBE0F90DF
:1006F0001F9018951F920F920FB60F9211242F93EF
:100700003F934F935F936F937F938F939F93AF9399
:10071000BF93EF93FF9380EB91E00E943E02FF9125
:10072000EF91BF91AF919F918F917F916F915F9169
:100730004F913F912F910F900FBE0F901F901895E2
:1007400080EB91E00E94030221E0892B09F420E074
:10075000822F08951092B3011092B20188EE93E0B7
:10076000A0E0B0E08093B4019093B501A093B601EE
:10077000B093B70184E391E09093B1018093B0010D
:1007800085EC90E09093BD018093BC0184EC90E0F7
:100790009093BF018093BE0180EC90E09093C101E3
:1007A0008093C00181EC90E09093C3018093C201DB
:1007B00082EC90E09093C5018093C40186EC90E0B8
:1007C0009093C7018093C6011092C9011092CA018B
:1007D0001092CB011092CC01089508950E94C80197
:1007E0000E94ED030E947F00C0E3D2E00E949500CA
:1007F0002097E1F30E943002F9CFCF92DF92EF927F
:10080000FF920F931F93CF93DF936C017A01EB015B
:10081000E60EF71E00E010E0CE15DF0561F06991ED
:10082000D601ED91FC910190F081E02DC601099572
:10083000080F191FF1CFC801DF91CF911F910F91C0
:10084000FF90EF90DF90CF9008956115710581F0D2
:10085000DB010D900020E9F7AD0141505109461B25
:10086000570BDC01ED91FC910280F381E02D09949E
:1008700080E090E0089560E471E00C9425040F930B
:100880001F93CF93DF93EC010E9425048C01CE01CE
:100890000E943B04800F911FDF91CF911F910F9118
:1008A0000895FC01808191810C94C007CF93DF9360
:1008B000EC0188819981009711F00E94C00719828C
:1008C00018821D821C821B821A82DF91CF910895AB
:1008D0000F931F93CF93DF93EC018B016F5F7F4FDB
:1008E000888199810E944F08009731F0998388830D
:1008F0001B830A8381E001C080E0DF91CF911F91CB
:100900000F910895CF93DF93EC0188819981892B12
:1009100029F08A819B818617970760F4CE010E9497
:100920006804882341F08C819D81892B19F4E8812A
:10093000F981108281E0DF91CF910895EF92FF92CB
:100940000F931F93CF93DF93EC017B018A01BA01D0
:100950000E948204811104C0CE010E94560407C087
:100960001D830C83B701888199810E944209CE01C1
:10097000DF91CF911F910F91FF90EF900895FC01AF
:100980001182108213821282158214826115710500
:1009900059F0FB0101900020E9F7AF0141505109E6
:1009A000461B570B0C949E040895CF93DF93EC01E4
:1009B0006115710561F0FB0101900020E9F7AF01BD
:1009C00041505109461B570B0E949E0402C00E94D1
:1009D0005604CE01DF91CF9108950F931F93CF93CB
:1009E000DF93CDB7DEB729970FB6F894DEBF0FBE01
:1009F000CDBF8C01862FF8011182108213821282E2
:100A00001582148250E0BE016F5F7F4F90E00E941C
:100A10005809BE016F5F7F4FC8010E94D504299617
:100A20000FB6F894DEBF0FBECDBFDF91CF911F91FF
:100A30000F910895EF92FF920F931F93CF93DF933F
:100A4000EC017B010C811D816115710511F480E0C1
:100A500016C04115510591F0040F151FB8010E94F1
:100A600082048823A1F3288139818C819D81B7017B
:100A7000820F931F0E9442091D830C8381E0DF9146
:100A8000CF911F910F91FF90EF900895CF93DF9337
:100A900000D0CDB7DEB769831A8241E050E0BE01D5
:100AA0006F5F7F4F0E941A050F900F90DF91CF91DB
:100AB0000895FC0124813581232B31F421E0611557
:100AC0007105A1F0FB0108C0FC01808191816115D5
:100AD000710531F421E0FC018081882339F005C0E3
:100AE0000E94390921E0892B09F020E0822F089526
:100AF0000F931F93CF93DF93EB0141155105E9F05D
:100B00002097D9F0FC016481758126173707A0F47E
:100B1000621B730B8A01015011096017710708F4F9
:100B20008B01FC0160817181620F731FA801CE01EE
:100B30000E944909C00FD11F1882DF91CF911F91E8
:100B40000F910895BF92CF92DF92EF92FF920F9391
:100B50001F93CF93DF936C017B01EA018901241776
:100B6000350720F48D2FE901042F182F62E471E07E
:100B7000C6010E94BF04D70114968D919C911597D0
:100B8000C817D907C8F48017910708F48C01D7015A
:100B9000ED91FC911197E00FF11FB08010826D91E3
:100BA0007C916C0F7D1FC6010E94D504D701ED9189
:100BB000FC91E00FF11FB082C601DF91CF911F9130
:100BC0000F91FF90EF90DF90CF90BF90089540D0AD
:100BD00008F481E00895E89409C097FB3EF49095ED
:100BE0008095709561957F4F8F4F9F4F9923A9F006
:100BF000F92F96E9BB279395F69587957795679595
:100C0000B795F111F8CFFAF4BB0F11F460FF1BC0D8
:100C10006F5F7F4F8F4F9F4F16C0882311F096E96B
:100C200011C0772321F09EE8872F762F05C0662319
:100C300071F096E8862F70E060E02AF09A95660FD2
:100C4000771F881FDAF7880F9695879597F908958B
:100C5000990F0008550FAA0BE0E8FEEF16161706CD
:100C6000E807F907C0F012161306E407F50798F035
:100C7000621B730B840B950B39F40A2661F0232B4E
:100C8000242B252B21F408950A2609F4A140A695CA
:100C90008FEF811D811D089597F99F6780E870E0AF
:100CA00060E008959FEF80EC089500240A941616E2
:100CB000170618060906089500240A94121613064A
:100CC000140605060895092E0394000C11F48823D8
:100CD00052F0BB0F40F4BF2B11F460FF04C06F5FF4
:100CE0007F4F8F4F9F4F089557FD9058440F551FCA
:100CF00059F05F3F71F04795880F97FB991F61F09E
:100D00009F3F79F087950895121613061406551F14
:100D1000F2CF4695F1DF08C0161617061806991F80
:100D2000F1CF86957105610508940895E894BB2775
:100D300066277727CB0197F908950BD0C4CFB5DF8D
:100D400028F0BADF18F0952309F0A6CFABCF112415
:100D5000EECFCADFA0F3959FD1F3950F50E0551F5A
:100D6000629FF001729FBB27F00DB11D639FAA2700
:100D7000F00DB11DAA1F649F6627B00DA11D661F4F
:100D8000829F2227B00DA11D621F739FB00DA11D70
:100D9000621F839FA00D611D221F749F3327A00D2A
:100DA000611D231F849F600D211D822F762F6A2FC6
:100DB00011249F5750408AF0E1F088234AF0EE0F4B
:100DC000FF1FBB1F661F771F881F91505040A9F758
:100DD0009E3F510570F060CFAACF5F3FECF3983E85
:100DE000DCF3869577956795B795F795E7959F5FBF
:100DF000C1F7FE2B880F911D9695879597F9089559
:100E0000A1E21A2EAA1BBB1BFD010DC0AA1FBB1F0E
:100E1000EE1FFF1FA217B307E407F50720F0A21B80
:100E2000B30BE40BF50B661F771F881F991F1A94ED
:100E300069F760957095809590959B01AC01BD0117
:100E4000CF010895EE0FFF1F0590F491E02D099456
:100E5000CF93DF938230910510F482E090E0E0912F
:100E60004F02F091500220E030E0A0E0B0E0309777
:100E700039F14081518148175907B8F0481759078F
:100E800071F482819381109729F013969C938E932D
:100E900012972CC09093500280934F0227C02115C7
:100EA000310531F04217530718F0A901DB0101C0E9
:100EB000EF019A01BD01DF010280F381E02DD7CF60
:100EC00021153105F9F0281B390B2430310580F448
:100ED0008A819B816115710521F0FB0193838283D7
:100EE00004C09093500280934F02FE01329644C09A
:100EF000FE01E20FF31F8193919322503109398350
:100F000028833AC020914D0230914E02232B41F4A8
:100F1000209102013091030130934E0220934D0243
:100F200020910001309101012115310541F42DB7C7
:100F30003EB74091040150910501241B350BE0910F
:100F40004D02F0914E02E217F307A0F42E1B3F0B67
:100F50002817390778F0AC014E5F5F4F241735072B
:100F600048F04E0F5F1F50934E0240934D02819305
:100F7000919302C0E0E0F0E0CF01DF91CF910895BE
:100F8000CF93DF93009709F487C0FC013297138257
:100F90001282C0914F02D0915002209781F420819B
:100FA0003181280F391F80914D0290914E02821796
:100FB000930779F5F0934E02E0934D026DC0DE0188
:100FC00020E030E0AE17BF0750F412964D915C91CF
:100FD00013979D014115510509F1DA01F3CFB38350
:100FE000A28340815181840F951F8A179B0771F45A
:100FF0008D919C911197840F951F02969183808308
:1010000012968D919C9113979383828321153105BC
:1010100029F4F0935002E0934F023EC0D901139699
:10102000FC93EE9312974D915D91A40FB51FEA17B3
:10103000FB0779F480819181840F951F0296D90175
:1010400011969C938E938281938113969C938E9399
:101050001297E0E0F0E08A819B81009719F0FE0191
:10106000EC01F9CFCE01029628813981820F931FBE
:1010700020914D0230914E022817390769F43097BC
:1010800029F41092500210924F0202C01382128271
:10109000D0934E02C0934D02DF91CF910895A0E00E
:1010A000B0E0E5E5F8E00C941A0BEC01CB012097D9
:1010B00019F40E942807B8C0FE01E60FF71F9E0131
:1010C00022503109E217F30708F4ACC0D9010D91A1
:1010D0001C91119706171707B8F00530110508F491
:1010E0009FC0A801445051094617570708F498C0FB
:1010F00002501109061B170B019311936D937C93FA
:10110000CF010E94C0078CC05B01A01AB10A4E013A
:10111000800E911EA0914F02B0915002612C712C53
:1011200060E070E0109709F449C0A815B905C9F549
:10113000ED90FC901197670142E0C40ED11CCA14D7
:10114000DB0478F147018A189B08640142E0C40E71
:10115000D11C1296BC9012971396AC91B5E0CB16A9
:10116000D10440F0B282A38391828082D9018D9311
:101170009C9309C00E5F1F4F0E0D1F1DF9011183B7
:101180000083EB2DFA2F6115710531F0DB01139609
:10119000FC93EE93129744C0F0935002E0934F02F9
:1011A0003FC06D917C9111976616770608F43B015C
:1011B000BD0112960D90BC91A02DB4CF60914D024F
:1011C00070914E0268157905E9F468167906D0F435
:1011D00040910001509101014115510541F44DB775
:1011E0005EB76091040170910501461B570BE4172F
:1011F000F507C0F4F0934E02E0934D02F90191839C
:1012000080830EC00E9428077C01009759F0A80136
:10121000BE010E942509CE010E94C007C70104C07B
:10122000CE0102C080E090E0CDB7DEB7EEE00C94D6
:10123000360B662777270C947D099111C1C1803246
:1012400019F089508550D0F70895FB01DC0102C0E8
:1012500001900D9241505040D8F70895FB01DC01F8
:101260000D900020E9F7119701900D920020E1F711
:101270000895FB01DC018D91019080190110D9F3D3
:10128000990B0895FB01DC0101900D920020E1F71C
:101290000895FB01DC014150504048F001900D924F
:1012A0000020C9F701C01D9241505040E0F7089559
:1012B0004532510520F4423010F00C946309FB01D3
:1012C0001082CB010895BB27FB015527AA27880F61
:1012D000991FAA1FA41710F0A41B83955051B9F7AA
:1012E000A05DAA3308F0A95DA193009779F7B11129
:1012F000B1931192CB010C94FB0AA0E0B0E0E3E8BB
:10130000F9E00C941C0B8B016115710521F0DB01D8
:101310008C9311969C93EC015E01BFEFAB1ABB0A54
:101320007501C8808C2D90E00E941D09892B11F059
:10133000E501F2CFEDE2CE1208C07E01F2E0EF0E41
:10134000F11CC980DD24D39409C02BE2C21205C070
:101350007E0142E0E40EF11CC980D12CE701219707
:1013600043E050E060E770E0CE010E94E30A892B81
:10137000C1F4239645E050E06BE670E0CE010E9498
:10138000E30A892B09F425960115110519F0D801F6
:10139000CD93DC93D11006C160E070E080E89FE758
:1013A0000AC143E050E068E670E0CE010E94E30A23
:1013B000892B59F40115110509F4F9C0B2E0EB0EBF
:1013C000F11CF801F182E082F2C0F70160E070E008
:1013D000CB01C0E0D0E07F01A0EDAA2EAC0C29E04B
:1013E0002A1530F14D2D4260B42E2D2D2870D2FEDD
:1013F00004C0211125C0219623C021112197A5E009
:10140000B0E09B01AC010E940B0B660F771F881F99
:10141000991F6A0D711D811D911D6839A9E97A070F
:101420008A07A9E19A0760F0BD2DB660BB2E08C0FF
:101430002EEFA2120AC0D3FC50C04D2D4860B42E2E
:101440003196D701CC90DB2CC6CF2C2D2F7D2534A7
:1014500009F043C0A081AD3241F4BD2DB061DB2E57
:101460007F0122E0E20EF11C0CC07F01AB3231F0B3
:101470004FEFE41AF40A21E030E006C0A2E0EA0EE1
:10148000F11CA18122E030E0A053AA3018F0E21A4A
:10149000F30A23C0F70120E030E02038BCE03B072E
:1014A0005CF4A901440F551F440F551F240F351F2D
:1014B000220F331F2A0F311DAF014F5F5F4F7A019B
:1014C000A081A053AA3010F4FA01E7CFD4FE03C0E4
:1014D000319521953109C20FD31FD1FE09C00115E5
:1014E000110531F0E1E0EE1AF108D801ED92FC921D
:1014F0000E94EB052D2D2370233019F04B015C0168
:1015000006C04B015C01B7FAB094B7F8B09420E084
:1015100030E0A901C501B4010E94E705882309F460
:101520003EC0D7FF06C0D195C195D10907E810E0AC
:1015300002C00FE910E06801B8E1CB1AD10890E2CF
:10154000E92EF12CCE15DF0574F0F80125913591C7
:1015500045915491C501B4010E949D064B015C0167
:10156000CE19DF09EFCF04501109F594E7940C155B
:101570001D0541F78A2D880F8B2D881F8F3F49F05D
:1015800020E030E0A901C501B4010E94E705811106
:1015900006C082E290E09093520280935102C5010E
:1015A000B40109C060E070E080E89FEF04C060E033
:1015B00070E080EC9FE7CDB7DEB7ECE00C94380B21
:1015C000992788270895FB01DC014150504088F09D
:1015D0008D9181341CF08B350CF4805E6591613403
:1015E0001CF06B350CF4605E861B611171F3990B76
:1015F0000895881BFCCFDC01FC01672F71917723D4
:10160000E1F7329704C07C916D9370836291AE17BD
:10161000BF07C8F308950E944D0BA59F900DB49F7E
:10162000900DA49F800D911D112408952F923F923B
:101630004F925F926F927F928F929F92AF92BF92E2
:10164000CF92DF92EF92FF920F931F93CF93DF938E
:10165000CDB7DEB7CA1BDB0B0FB6F894DEBF0FBEEB
:10166000CDBF09942A88398848885F846E847D8438
:101670008C849B84AA84B984C884DF80EE80FD803A
:101680000C811B81AA81B981CE0FD11D0FB6F894B0
:10169000DEBF0FBECDBFED010895A29FB001B39F85
:1016A000C001A39F700D811D1124911DB29F700D6B
:1016B000811D1124911D089510E0C8EAD0E004C0F6
:1016C000FE010E9424072296CA3AD107C9F7F8946E
:0216D000FFCF4A
:1016D200000053028000000024484348444D2C007F
:1016E2002448434844472C002C2C2C2C2A00244804
:1016F2004348444D2C3035382E302C4D2A3234009C
:10170200000000008102FD0303021C020E025F02C0
:101712000D0A006E616E00696E66006F7666002EBD
:021722000000C5
:00000001FF
