:100000000C9454000C947C000C947C000C947C00A8
:100010000C947C000C947C000C947C000C947C0070
:100020000C947C000C947C000C947C000C947C0060
:100030000C947C000C947C000C947C000C947C0050
:100040000C94C1020C947C000C948F020C946902F5
:100050000C947C000C947C000C947C000C947C0030
:100060000C947C000C947C004E414E494E495459EE
:10007000494E46CDCCCC3D0AD7233C17B7D1387773
:10008000CC2B329595E6241FB14F0A000020410089
:1000900000C84200401C4620BCBE4CCA1B0E5AAED3
:1000A000C59D74000B03E90411241FBECFEFD8E0F7
:1000B000DEBFCDBF22E0A8E4B1E001C01D92A232B4
:1000C000B207E1F711E0A0E0B1E0ECE7F4E102C033
:1000D00005900D92A834B107D9F710E0C3E5D0E040
:1000E00004C02197FE010E940408C235D107C9F758
:1000F0000E9446030C94310A0C940000CF92DF92C8
:10010000EF92FF920F931F93CF93DF936C017A01CD
:100110008B01C0E0D0E0CE15DF0581F0D8016D91F4
:100120008D01D601ED91FC910190F081E02DC60189
:100130000995892B11F02196EECF7E01C701DF9141
:10014000CF911F910F91FF90EF90DF90CF90089586
:10015000089580E090E00895FC01538D448D252F93
:1001600030E0842F90E0821B930B541710F0CF9651
:10017000089501970895FC01918D828D981761F083
:10018000828DDF01A80FB11D5D968C91928D9F5FCE
:100190009F73928F90E008958FEF9FEF0895FC0179
:1001A000918D828D981731F0828DE80FF11D858D2C
:1001B00090E008958FEF9FEF0895FC01918D228DBF
:1001C000892F90E0805C9F4F821B91098F73992744
:1001D000089589E791E00E94DD0021E0892B09F470
:1001E00020E0822F0895FC01848DDF01A80FB11D4E
:1001F000A35ABF4F2C91848D90E001968F7399275D
:10020000848FA689B7892C93A089B1898C9183703A
:1002100080648C93938D848D981306C00288F38933
:10022000E02D80818F7D80830895EF92FF920F9360
:100230001F93CF93DF93EC0181E0888F9B8D8C8D92
:10024000981305C0E889F989808185FD26C0F62EBE
:100250000B8D10E00F5F1F4F0F731127E02E8C8D59
:10026000E8120CC00FB607FCFACFE889F989808143
:1002700085FFF5CFCE010E94F300F1CF8B8DFE01FB
:10028000E80FF11DE35AFF4FF0829FB7F8940B8FF0
:10029000EA89FB89808180620AC09FB7F894EE8961
:1002A000FF896083E889F989808183708064808315
:1002B0009FBF81E090E0DF91CF911F910F91FF9060
:1002C000EF900895CF93DF93EC01888D8823C9F0D8
:1002D000EA89FB89808185FD05C0A889B9898C914F
:1002E00086FD0FC00FB607FCF5CF808185FFF2CFEA
:1002F000A889B9898C9185FFEDCFCE010E94F300CA
:10030000E7CFDF91CF9108950F931F93CF93DF93A2
:10031000FC01C481D581209719F4FB01108211C022
:10032000415051094C175D0708F4EA018B01FC01AB
:1003300060817181AE01C8010E94220AC00FD11FE5
:100340001882DF91CF911F910F9108950E94F109BA
:100350000F931F93CF93DF93EC01888199810097CE
:1003600029F02A813B812617370788F48B016F5FBC
:100370007F4F0E942B09009761F0998388831B832C
:100380000A832C813D81232B11F4FC01108281E032
:1003900001C080E0DF91CF911F910F910895EF92FE
:1003A000FF920F931F93CF93DF93EC017B018A01A0
:1003B000BA010E94A8012881398181110DC021153F
:1003C000310519F0C9010E94A208198218821D8204
:1003D0001C821B821A8206C01D830C83B701C901CF
:1003E0000E941B0ACE01DF91CF911F910F91FF90C8
:1003F000EF900895CF93DF93EC016115710559F0EB
:10040000FB0101900020E9F73197AF01461B570B24
:100410000E94CF010CC088819981009711F00E9441
:10042000A208198218821D821C821B821A82CE01A8
:10043000DF91CF910895EF92FF920F931F93CF9387
:10044000DF9300D0CDB7DEB7EE24E39489E791E0E7
:100450000E94DD00181619066CF589E791E00E94EC
:10046000BB00F82E89831A8200911A0210911B0298
:100470000F5F1F4FB80186E192E00E94A801882318
:1004800099F0209116023091170280911A029091F2
:100490001B02BE016F5F7F4F820F931F0E941B0ADA
:1004A00010931B0200931A028AE0F812CFCFE09259
:1004B0007801CCCF0F900F90DF91CF911F910F91CA
:1004C000FF90EF9008950E94E90081110C941B02A7
:1004D00008951F920F920FB60F9211242F933F93FE
:1004E0004F935F936F937F938F939F93AF93BF933C
:1004F000EF93FF9389E791E00E94F300FF91EF9162
:10050000BF91AF919F918F917F916F915F914F912B
:100510003F912F910F900FBE0F901F9018951F9233
:100520000F920FB60F9211242F938F939F93EF93F7
:10053000FF93E0918901F0918A018081E0918F0120
:10054000F091900182FD12C09081809192018F5FA5
:100550008F7320919301821751F0E0919201F0E0A6
:10056000E758FE4F958F8093920101C08081FF91E3
:10057000EF919F918F912F910F900FBE0F901F9031
:1005800018951F920F920FB60F9211242F933F933D
:100590008F939F93AF93BF9380914D0190914E01A4
:1005A000A0914F01B091500130914C0123E0230FF5
:1005B0002D3720F40196A11DB11D05C026E8230F9B
:1005C0000296A11DB11D20934C0180934D01909383
:1005D0004E01A0934F01B09350018091480190913A
:1005E0004901A0914A01B0914B010196A11DB11D95
:1005F0008093480190934901A0934A01B0934B0125
:10060000BF91AF919F918F913F912F910F900FBE0E
:100610000F901F901895E9E7F1E01382128288EE9F
:1006200093E0A0E0B0E084839583A683B7838CE059
:1006300091E09183808385EC90E09587848784ECBA
:1006400090E09787868780EC90E0918B808B81EC9F
:1006500090E0938B828B82EC90E0958B848B86EC80
:1006600090E0978B868B118E128E138E148EE6E19E
:10067000F2E011821082138212821582148241E10B
:1006800050E06AE171E0CF010C94CF01CF93DF938A
:10069000CDB7DEB7E7970FB6F894DEBF0FBECDBF7C
:1006A000789484B5826084BD84B5816084BD85B54D
:1006B000826085BD85B5816085BD80916E00816059
:1006C00080936E00109281008091810082608093FF
:1006D0008100809181008160809381008091800001
:1006E0008160809380008091B10084608093B1002C
:1006F0008091B00081608093B00080917A00846026
:1007000080937A0080917A00826080937A00809151
:100710007A00816080937A0080917A00806880936B
:100720007A001092C100E0918901F0918A0182E083
:100730008083E0918501F091860181E08083E091E2
:100740008701F091880180EA808310929101E09105
:100750008D01F0918E0186E08083E0918B01F09114
:100760008C01808180618083E0918B01F0918C010C
:10077000808188608083E0918B01F0918C01808181
:1007800080688083E0918B01F0918C0180818F7D66
:1007900080837E018DE0E80EF11C80917801882332
:1007A00009F4D6C01A8219821C821B821E821D8205
:1007B00040E050E066E471E0CE0101960E94CF0176
:1007C00000911A0210911B0201151105E9F0073082
:1007D000110510F007E010E0E0911602F091170209
:1007E000E00FF11FD0801082609116027091170205
:1007F000CE0101960E94FA01809116029091170293
:10080000FC01E00FF11FD0828D819E81C980DA80CA
:10081000892B41F06CE271E0C6010E94120A11E0DE
:10082000892B09F010E0C6010E94A208112309F4E7
:100830008DC066E071E085E591E00E941B0A409161
:100840001A0250911B024115510539F0BE016F5F2C
:100850007F4F86E192E00E948401DE011896FE013E
:10086000F3968F018D918193EA16FB06D9F7C801A3
:100870000E94EF0464E371E085E591E00E94070ABD
:10088000B80185E591E00E94070A6CE371E085E517
:1008900091E00E94070AE6E5F1E080E09191292FBE
:1008A0002F7D2A3021F0992311F08927F7CF1EA63A
:1008B0001DA618AA1FA61AAA19AA40E1BE016C5DBE
:1008C0007F4F90E00E94F304BE016C5D7F4FCE012C
:1008D0008D960E94FA010DA51EA50115110569F05E
:1008E000F8018081882349F0082E000C990B0E94A2
:1008F000F609F80181938F01F3CF49A95AA94F5FF7
:100900005F4F39F0BE016C5D7F4FCE018D960E9426
:100910008401BE016C5D7F4F85E591E00E94070A6E
:1009200064E471E085E591E00E94070A66E071E009
:10093000CE0101960E941B0A66E471E086E192E016
:100940000E94FA018DA59EA50E94A208109278012E
:100950002FB7F89480914D0190914E01A0914F01D5
:10096000B09150012FBF40915101509152016091BF
:10097000530170915401841B950BA60BB70B893C56
:100980009105A105B10510F12FB7F89480914D01A3
:1009900090914E01A0914F01B09150012FBF8093D3
:1009A000510190935201A0935301B0935401E5E596
:1009B000F1E001900020E9F73197AF014555514032
:1009C00065E571E089E791E00E947E000E94630284
:1009D000E4CE80911602909117020C94A20866272B
:1009E00077270C940D05BB27FB015527AA27880FF5
:1009F000991FAA1FA41710F0A41B83955051B9F793
:100A0000A05DAA3308F0A95DA193009779F7B11111
:100A1000B1931192CB010C947C06A0E0B0E0E3E12D
:100A2000F5E00C94C407EC016B016115710519F038
:100A3000FB01918380837E01FFEFEF1AFF0A08819B
:100A4000802F90E00E945B06892B11F0E701F3CF25
:100A50000D3239F47E0182E0E80EF11C098111E0CB
:100A600008C00B3229F47E0192E0E90EF11C0981E5
:100A700010E0E701219743E050E060E770E0CE012D
:100A80000E946406892BC1F4239645E050E06BE692
:100A900070E0CE010E946406892B09F42596C114EA
:100AA000D10419F0F601D183C0831111F6C060E0C2
:100AB00070E080E89FE7FAC043E050E068E670E04D
:100AC000CE010E946406892B59F4C114D10409F4A3
:100AD000E9C0F2E0EF0EF11CF601F182E082E2C023
:100AE00020E030E0A901C0E0D0E0F70180EDA82EC1
:100AF000A00E89E08A1530F1912F9260B92E812FD6
:100B0000887012FF04C0811124C0219622C0811177
:100B10002197A5E0B0E00E94B307DC01CB01880F6C
:100B2000991FAA1FBB1F9C01AD012A0D311D411D3C
:100B3000511D283989E93807480789E1580748F0E5
:100B4000166006C09EEFA9120AC013FD40C01860CF
:100B5000B12E8FEFE81AF80A00811B2DC6CF802F27
:100B60008F7D8534A1F580818D3211F4106106C02E
:100B70008B3221F0319661E070E004C081813296C1
:100B800062E070E080538A3018F0E61BF70B1FC05C
:100B900060E070E060389CE079075CF4DB01AA0F4C
:100BA000BB1FAA0FBB1F6A0F7B1F660F771F680F43
:100BB000711D3196DF0111978C9180538A3050F36B
:100BC00014FF03C0719561957109C60FD71F11FFFE
:100BD00008C0C114D10429F0CF010197F601918317
:100BE0008083CA01B9010E949106212F237023300E
:100BF00019F04B015C0106C04B015C01B7FAB094DF
:100C0000B7F8B09420E030E0A901C501B4010E941A
:100C10008C06882309F43EC0D7FF06C0D195C19544
:100C2000D10907E810E002C00FE910E06801F8E11F
:100C3000CF1AD10890E2E92EF12CCE15DF0574F021
:100C4000F8012591359145915491C501B4010E9457
:100C5000F2064B015C01CE19DF09EFCF04501109F8
:100C6000F594E7940C151D0541F78A2D880F8B2DFF
:100C7000881F8F3F49F020E030E0A901C501B40191
:100C80000E948C06811106C082E290E090931D02C2
:100C900080931C02C501B40109C060E070E080E8E7
:100CA0009FEF04C060E070E080EC9FE7CDB7DEB757
:100CB000ECE00C94E00791110C945F07803219F07E
:100CC00089508550C8F70895FB01DC014150504020
:100CD00088F08D9181341CF08B350CF4805E659129
:100CE00061341CF06B350CF4605E861B611171F38E
:100CF000990B0895881BFCCFDC01FC01672F7191D3
:100D00007723E1F7329704C07C916D9370836291F1
:100D1000AE17BF07C8F308950E94CE0608F481E01D
:100D20000895E89409C097FB3EF4909580957095DE
:100D300061957F4F8F4F9F4F9923A9F0F92F96E927
:100D4000BB279395F695879577956795B795F1119C
:100D5000F8CFFAF4BB0F11F460FF1BC06F5F7F4F39
:100D60008F4F9F4F16C0882311F096E911C077234B
:100D700021F09EE8872F762F05C0662371F096E854
:100D8000862F70E060E02AF09A95660F771F881F23
:100D9000DAF7880F9695879597F90895990F0008C7
:100DA000550FAA0BE0E8FEEF16161706E807F9073D
:100DB000C0F012161306E407F50798F0621B730BD8
:100DC000840B950B39F40A2661F0232B242B252B59
:100DD00021F408950A2609F4A140A6958FEF811DFC
:100DE000811D08950E9405070C9479070E946B07E6
:100DF00038F00E94720720F0952311F00C946207DE
:100E00000C94680711240C94AD070E948A0770F3B4
:100E1000959FC1F3950F50E0551F629FF001729F9F
:100E2000BB27F00DB11D639FAA27F00DB11DAA1FAE
:100E3000649F6627B00DA11D661F829F2227B00DFB
:100E4000A11D621F739FB00DA11D621F839FA00D86
:100E5000611D221F749F3327A00D611D231F849FD6
:100E6000600D211D822F762F6A2F11249F5750402D
:100E70009AF0F1F088234AF0EE0FFF1FBB1F661FA8
:100E8000771F881F91505040A9F79E3F510580F071
:100E90000C9462070C94AD075F3FE4F3983ED4F3E3
:100EA000869577956795B795F795E7959F5FC1F715
:100EB000FE2B880F911D9695879597F90895992790
:100EC0008827089597F99F6780E870E060E00895AB
:100ED0009FEF80EC089500240A9416161706180652
:100EE0000906089500240A9412161306140605062E
:100EF0000895092E0394000C11F4882352F0BB0FBF
:100F000040F4BF2B11F460FF04C06F5F7F4F8F4F21
:100F10009F4F089557FD9058440F551F59F05F3F5C
:100F200071F04795880F97FB991F61F09F3F79F00B
:100F300087950895121613061406551FF2CF46958D
:100F4000F1DF08C0161617061806991FF1CF86950F
:100F50007105610508940895E894BB2766277727F3
:100F6000CB0197F908950E94F507A59F900DB49FB6
:100F7000900DA49F800D911D112408952F923F92F2
:100F80004F925F926F927F928F929F92AF92BF9299
:100F9000CF92DF92EF92FF920F931F93CF93DF9345
:100FA000CDB7DEB7CA1BDB0B0FB6F894DEBF0FBEA2
:100FB000CDBF09942A88398848885F846E847D84EF
:100FC0008C849B84AA84B984C884DF80EE80FD80F1
:100FD0000C811B81AA81B981CE0FD11D0FB6F89467
:100FE000DEBF0FBECDBFED010895A29FB001B39F3C
:100FF000C001A39F700D811D1124911DB29F700D22
:10100000811D1124911D0895EE0FFF1F0590F4918D
:10101000E02D09940F931F93CF93DF9382309105B6
:1010200010F482E090E0E0912002F091210220E0B3
:1010300030E0A0E0B0E0309719F1408151810281A9
:10104000138148175907C8F08417950769F410975A
:1010500031F012960C93129713961C9327C00093AD
:1010600020021093210222C02115310519F04217E8
:10107000530718F49A01BD01EF01DF01F801DBCF3E
:1010800021153105F9F0281B390B2430310580F486
:101090008A819B816115710521F0FB019383828315
:1010A00004C09093210280932002FE01329644C036
:1010B000FE01E20FF31F819391932250310939838E
:1010C00028833AC020911E0230911F02232B41F445
:1010D000209102013091030130931F0220931E02E0
:1010E00020910001309101012115310541F42DB706
:1010F0003EB74091040150910501241B350BE0914E
:101100001E02F0911F02E217F307A0F42E1B3F0B03
:101110002817390778F0AC014E5F5F4F2417350769
:1011200048F04E0F5F1F50931F0240931E028193A1
:10113000919302C0E0E0F0E0CF01DF91CF911F91E9
:101140000F910895CF93DF93009709F481C0FC01BC
:10115000329713821282A0912002B091210210973F
:1011600081F420813181820F931F20911E023091E2
:101170001F022817390751F5F0931F02E0931E0252
:1011800067C0ED0120E030E0CE17DF0740F44A8170
:101190005B819E0141155105F1F0EA01F5CFD38342
:1011A000C28340815181840F951FC817D90759F414
:1011B00088819981840F951F0296918380838A810B
:1011C0009B81938382832115310529F4F0932102B9
:1011D000E09320023DC0E901FB83EA8349915991E4
:1011E000C40FD51FEC17FD0761F480819181840F36
:1011F000951F0296E90199838883828193819B835D
:101200008A83E0E0F0E012968D919C91139700970D
:1012100019F0FD01DC01F7CF8D919C9111979D0193
:101220002E5F3F4F820F931F20911E0230911F02AD
:101230002817390769F4309729F410922102109287
:10124000200202C013821282B0931F02A0931E02DA
:10125000DF91CF910895A0E0B0E0E1E3F9E00C94D4
:10126000C207EC01009721F4CB010E940A08B4C028
:10127000FC01E60FF71F9C0122503109E217F3072A
:1012800008F4A8C0D9010D911C91119706171707F2
:10129000B0F00530110508F49BC0C801049786170B
:1012A000970708F495C002501109061B170B01930C
:1012B00011936D937C93CF010E94A20889C05B01BA
:1012C000A01AB10A4C01800E911EA0912002B0918B
:1012D0002102612C712CE12CF12C109709F446C0ED
:1012E0008D919C911197A815B905B1F56C0142E05B
:1012F000C40ED11CCA14DB0478F14C018A189B0877
:10130000640142E0C40ED11C1296BC901297139651
:10131000AC91B5E0CB16D10440F0B282A3839182A8
:101320008082D9016D937C9309C00E5F1F4F800F9F
:10133000911FF90191838083EB2DFA2FE114F104C1
:1013400031F0D7011396FC93EE93129741C0F093BE
:101350002102E09320023CC06816790608F43C01A3
:101360007D0112960D90BC91A02DB7CF80911E02E9
:1013700090911F0288169906E1F466167706C8F464
:101380008091000190910101009741F48DB79EB7C3
:101390004091040150910501841B950BE817F90752
:1013A000C8F4F0931F02E0931E02F9017183608379
:1013B0000FC0CB010E940A087C01009759F0A801D8
:1013C000BE010E94FE09CE010E94A208C70104C00E
:1013D000CE0102C080E090E0CDB7DEB7EEE00C9425
:1013E000DE0781E090E0F8940C94310A91110895A1
:1013F00081568A5108F4805285580895FB01DC011A
:1014000002C001900D9241505040D8F70895FB0161
:10141000DC010D900020E9F7119701900D9200205A
:10142000E1F70895FB01DC018D9101908019011015
:10143000D9F3990B0895FB01DC0101900D92002076
:10144000E1F70895FB01DC014150504048F0019064
:101450000D920020C9F701C01D9241505040E0F7A5
:10146000089510E0C3E5D0E004C0FE010E94040826
:0C1470002196C435D107C9F7F894FFCFCE
:10147C0000002202800000000000000015017E0028
:10148C00AC006201DD00BB00CF0024484348444D52
:10149C002C3030302E302C4D2A3234002448434826
:1014AC00444D2C002448434844472C002C2C572CEA
:0814BC002C572A000D0A000064
:00000001FF
